{
  "contractName": "Birden",
  "abi": [
    {
      "inputs": [],
      "stateMutability": "nonpayable",
      "type": "constructor"
    },
    {
      "anonymous": false,
      "inputs": [
        {
          "indexed": true,
          "internalType": "address",
          "name": "owner",
          "type": "address"
        },
        {
          "indexed": true,
          "internalType": "address",
          "name": "approved",
          "type": "address"
        },
        {
          "indexed": true,
          "internalType": "uint256",
          "name": "tokenId",
          "type": "uint256"
        }
      ],
      "name": "Approval",
      "type": "event"
    },
    {
      "anonymous": false,
      "inputs": [
        {
          "indexed": true,
          "internalType": "address",
          "name": "owner",
          "type": "address"
        },
        {
          "indexed": true,
          "internalType": "address",
          "name": "operator",
          "type": "address"
        },
        {
          "indexed": false,
          "internalType": "bool",
          "name": "approved",
          "type": "bool"
        }
      ],
      "name": "ApprovalForAll",
      "type": "event"
    },
    {
      "anonymous": false,
      "inputs": [
        {
          "indexed": true,
          "internalType": "address",
          "name": "from",
          "type": "address"
        },
        {
          "indexed": true,
          "internalType": "address",
          "name": "to",
          "type": "address"
        },
        {
          "indexed": true,
          "internalType": "uint256",
          "name": "tokenId",
          "type": "uint256"
        }
      ],
      "name": "Transfer",
      "type": "event"
    },
    {
      "inputs": [],
      "name": "_comission",
      "outputs": [
        {
          "internalType": "uint256",
          "name": "",
          "type": "uint256"
        }
      ],
      "stateMutability": "view",
      "type": "function",
      "constant": true
    },
    {
      "inputs": [
        {
          "internalType": "address",
          "name": "to",
          "type": "address"
        },
        {
          "internalType": "uint256",
          "name": "tokenId",
          "type": "uint256"
        }
      ],
      "name": "approve",
      "outputs": [],
      "stateMutability": "nonpayable",
      "type": "function"
    },
    {
      "inputs": [
        {
          "internalType": "address",
          "name": "owner",
          "type": "address"
        }
      ],
      "name": "balanceOf",
      "outputs": [
        {
          "internalType": "uint256",
          "name": "",
          "type": "uint256"
        }
      ],
      "stateMutability": "view",
      "type": "function",
      "constant": true
    },
    {
      "inputs": [
        {
          "internalType": "uint256",
          "name": "tokenId",
          "type": "uint256"
        }
      ],
      "name": "getApproved",
      "outputs": [
        {
          "internalType": "address",
          "name": "",
          "type": "address"
        }
      ],
      "stateMutability": "view",
      "type": "function",
      "constant": true
    },
    {
      "inputs": [
        {
          "internalType": "address",
          "name": "owner",
          "type": "address"
        },
        {
          "internalType": "address",
          "name": "operator",
          "type": "address"
        }
      ],
      "name": "isApprovedForAll",
      "outputs": [
        {
          "internalType": "bool",
          "name": "",
          "type": "bool"
        }
      ],
      "stateMutability": "view",
      "type": "function",
      "constant": true
    },
    {
      "inputs": [],
      "name": "name",
      "outputs": [
        {
          "internalType": "string",
          "name": "",
          "type": "string"
        }
      ],
      "stateMutability": "view",
      "type": "function",
      "constant": true
    },
    {
      "inputs": [
        {
          "internalType": "uint256",
          "name": "tokenId",
          "type": "uint256"
        }
      ],
      "name": "ownerOf",
      "outputs": [
        {
          "internalType": "address",
          "name": "",
          "type": "address"
        }
      ],
      "stateMutability": "view",
      "type": "function",
      "constant": true
    },
    {
      "inputs": [],
      "name": "rentPriceCelo",
      "outputs": [
        {
          "internalType": "uint256",
          "name": "",
          "type": "uint256"
        }
      ],
      "stateMutability": "view",
      "type": "function",
      "constant": true
    },
    {
      "inputs": [
        {
          "internalType": "address",
          "name": "from",
          "type": "address"
        },
        {
          "internalType": "address",
          "name": "to",
          "type": "address"
        },
        {
          "internalType": "uint256",
          "name": "tokenId",
          "type": "uint256"
        }
      ],
      "name": "safeTransferFrom",
      "outputs": [],
      "stateMutability": "nonpayable",
      "type": "function"
    },
    {
      "inputs": [
        {
          "internalType": "address",
          "name": "from",
          "type": "address"
        },
        {
          "internalType": "address",
          "name": "to",
          "type": "address"
        },
        {
          "internalType": "uint256",
          "name": "tokenId",
          "type": "uint256"
        },
        {
          "internalType": "bytes",
          "name": "_data",
          "type": "bytes"
        }
      ],
      "name": "safeTransferFrom",
      "outputs": [],
      "stateMutability": "nonpayable",
      "type": "function"
    },
    {
      "inputs": [
        {
          "internalType": "address",
          "name": "operator",
          "type": "address"
        },
        {
          "internalType": "bool",
          "name": "approved",
          "type": "bool"
        }
      ],
      "name": "setApprovalForAll",
      "outputs": [],
      "stateMutability": "nonpayable",
      "type": "function"
    },
    {
      "inputs": [
        {
          "internalType": "bytes4",
          "name": "interfaceId",
          "type": "bytes4"
        }
      ],
      "name": "supportsInterface",
      "outputs": [
        {
          "internalType": "bool",
          "name": "",
          "type": "bool"
        }
      ],
      "stateMutability": "view",
      "type": "function",
      "constant": true
    },
    {
      "inputs": [],
      "name": "symbol",
      "outputs": [
        {
          "internalType": "string",
          "name": "",
          "type": "string"
        }
      ],
      "stateMutability": "view",
      "type": "function",
      "constant": true
    },
    {
      "inputs": [
        {
          "internalType": "address",
          "name": "from",
          "type": "address"
        },
        {
          "internalType": "address",
          "name": "to",
          "type": "address"
        },
        {
          "internalType": "uint256",
          "name": "tokenId",
          "type": "uint256"
        }
      ],
      "name": "transferFrom",
      "outputs": [],
      "stateMutability": "nonpayable",
      "type": "function"
    },
    {
      "inputs": [
        {
          "internalType": "uint256",
          "name": "tokenId",
          "type": "uint256"
        }
      ],
      "name": "tokenURI",
      "outputs": [
        {
          "internalType": "string",
          "name": "",
          "type": "string"
        }
      ],
      "stateMutability": "view",
      "type": "function",
      "constant": true
    },
    {
      "inputs": [],
      "name": "tokensInfo",
      "outputs": [
        {
          "components": [
            {
              "internalType": "uint256",
              "name": "tokenId",
              "type": "uint256"
            },
            {
              "internalType": "string",
              "name": "URI",
              "type": "string"
            },
            {
              "internalType": "address",
              "name": "creator",
              "type": "address"
            },
            {
              "internalType": "uint256",
              "name": "rentedAt",
              "type": "uint256"
            },
            {
              "internalType": "address",
              "name": "rentedBy",
              "type": "address"
            },
            {
              "internalType": "uint256",
              "name": "balance",
              "type": "uint256"
            }
          ],
          "internalType": "struct Birden.TokenInfoStruct[]",
          "name": "",
          "type": "tuple[]"
        }
      ],
      "stateMutability": "view",
      "type": "function",
      "constant": true
    },
    {
      "inputs": [
        {
          "internalType": "uint256",
          "name": "tokenId",
          "type": "uint256"
        }
      ],
      "name": "rent",
      "outputs": [],
      "stateMutability": "nonpayable",
      "type": "function"
    },
    {
      "inputs": [
        {
          "internalType": "uint256",
          "name": "tokenId",
          "type": "uint256"
        }
      ],
      "name": "redeem",
      "outputs": [],
      "stateMutability": "nonpayable",
      "type": "function"
    },
    {
      "inputs": [
        {
          "internalType": "string",
          "name": "_tokenURI",
          "type": "string"
        },
        {
          "internalType": "address",
          "name": "rent_token_address",
          "type": "address"
        }
      ],
      "name": "safeMint",
      "outputs": [],
      "stateMutability": "nonpayable",
      "type": "function"
    }
  ],
  "bytecode": "0x6080604052670de0b6b3a7640000600655662386f26fc100006007553480156200002857600080fd5b506040518060400160405280600681526020017f42697264656e00000000000000000000000000000000000000000000000000008152506040518060400160405280600481526020017f4252444e000000000000000000000000000000000000000000000000000000008152508160009080519060200190620000ad9291906200011a565b508060019080519060200190620000c69291906200011a565b50505042600881905550620000e7600a6200010460201b620014b41760201c565b620000fe600b6200010460201b620014b41760201c565b6200022e565b6001816000016000828254019250508190555050565b8280546200012890620001f9565b90600052602060002090601f0160209004810192826200014c576000855562000198565b82601f106200016757805160ff191683800117855562000198565b8280016001018555821562000198579182015b82811115620001975782518255916020019190600101906200017a565b5b509050620001a79190620001ab565b5090565b5b80821115620001c6576000816000905550600101620001ac565b5090565b7f4e487b7100000000000000000000000000000000000000000000000000000000600052602260045260246000fd5b600060028204905060018216806200021257607f821691505b602082108103620002285762000227620001ca565b5b50919050565b613c63806200023e6000396000f3fe608060405234801561001057600080fd5b50600436106101215760003560e01c80637456be7d116100ad578063c6f0577111610071578063c6f0577114610306578063c87b56dd14610322578063db006a7514610352578063e79c28fe1461036e578063e985e9c51461038c57610121565b80637456be7d1461027657806395d89b4114610292578063a22cb465146102b0578063a69bd72c146102cc578063b88d4fde146102ea57610121565b8063095ea7b3116100f4578063095ea7b3146101c257806323b872dd146101de57806342842e0e146101fa5780636352211e1461021657806370a082311461024657610121565b806301ffc9a71461012657806306ef93ad1461015657806306fdde0314610174578063081812fc14610192575b600080fd5b610140600480360381019061013b91906126b3565b6103bc565b60405161014d91906126fb565b60405180910390f35b61015e61049e565b60405161016b919061272f565b60405180910390f35b61017c6104a4565b60405161018991906127e3565b60405180910390f35b6101ac60048036038101906101a79190612831565b610536565b6040516101b9919061289f565b60405180910390f35b6101dc60048036038101906101d791906128e6565b6105bb565b005b6101f860048036038101906101f39190612926565b6106d2565b005b610214600480360381019061020f9190612926565b610732565b005b610230600480360381019061022b9190612831565b610752565b60405161023d919061289f565b60405180910390f35b610260600480360381019061025b9190612979565b610803565b60405161026d919061272f565b60405180910390f35b610290600480360381019061028b9190612831565b6108ba565b005b61029a610bcc565b6040516102a791906127e3565b60405180910390f35b6102ca60048036038101906102c591906129d2565b610c5e565b005b6102d4610c74565b6040516102e1919061272f565b60405180910390f35b61030460048036038101906102ff9190612b47565b610c7a565b005b610320600480360381019061031b9190612c6b565b610cdc565b005b61033c60048036038101906103379190612831565b610dc7565b60405161034991906127e3565b60405180910390f35b61036c60048036038101906103679190612831565b610eba565b005b6103766111ba565b6040516103839190612e7a565b60405180910390f35b6103a660048036038101906103a19190612e9c565b611420565b6040516103b391906126fb565b60405180910390f35b60007f80ac58cd000000000000000000000000000000000000000000000000000000007bffffffffffffffffffffffffffffffffffffffffffffffffffffffff1916827bffffffffffffffffffffffffffffffffffffffffffffffffffffffff1916148061048757507f5b5e139f000000000000000000000000000000000000000000000000000000007bffffffffffffffffffffffffffffffffffffffffffffffffffffffff1916827bffffffffffffffffffffffffffffffffffffffffffffffffffffffff1916145b806104975750610496826114ca565b5b9050919050565b60075481565b6060600080546104b390612f0b565b80601f01602080910402602001604051908101604052809291908181526020018280546104df90612f0b565b801561052c5780601f106105015761010080835404028352916020019161052c565b820191906000526020600020905b81548152906001019060200180831161050f57829003601f168201915b5050505050905090565b600061054182611534565b610580576040517f08c379a000000000000000000000000000000000000000000000000000000000815260040161057790612fae565b60405180910390fd5b6004600083815260200190815260200160002060009054906101000a900473ffffffffffffffffffffffffffffffffffffffff169050919050565b60006105c682610752565b90508073ffffffffffffffffffffffffffffffffffffffff168373ffffffffffffffffffffffffffffffffffffffff1603610636576040517f08c379a000000000000000000000000000000000000000000000000000000000815260040161062d90613040565b60405180910390fd5b8073ffffffffffffffffffffffffffffffffffffffff166106556115a0565b73ffffffffffffffffffffffffffffffffffffffff16148061068457506106838161067e6115a0565b611420565b5b6106c3576040517f08c379a00000000000000000000000000000000000000000000000000000000081526004016106ba906130d2565b60405180910390fd5b6106cd83836115a8565b505050565b6106e36106dd6115a0565b82611661565b610722576040517f08c379a000000000000000000000000000000000000000000000000000000000815260040161071990613164565b60405180910390fd5b61072d83838361171b565b505050565b61074d83838360405180602001604052806000815250610c7a565b505050565b6000806002600084815260200190815260200160002060009054906101000a900473ffffffffffffffffffffffffffffffffffffffff169050600073ffffffffffffffffffffffffffffffffffffffff168173ffffffffffffffffffffffffffffffffffffffff16036107fa576040517f08c379a00000000000000000000000000000000000000000000000000000000081526004016107f1906131f6565b60405180910390fd5b80915050919050565b60008073ffffffffffffffffffffffffffffffffffffffff168273ffffffffffffffffffffffffffffffffffffffff1603610873576040517f08c379a000000000000000000000000000000000000000000000000000000000815260040161086a90613288565b60405180910390fd5b600360008373ffffffffffffffffffffffffffffffffffffffff1673ffffffffffffffffffffffffffffffffffffffff168152602001908152602001600020549050919050565b6108c381611534565b610902576040517f08c379a00000000000000000000000000000000000000000000000000000000081526004016108f99061331a565b60405180910390fd5b6000600f600083815260200190815260200160002060009054906101000a900473ffffffffffffffffffffffffffffffffffffffff1690506006548173ffffffffffffffffffffffffffffffffffffffff166370a08231336040518263ffffffff1660e01b8152600401610976919061289f565b602060405180830381865afa158015610993573d6000803e3d6000fd5b505050506040513d601f19601f820116820180604052508101906109b7919061334f565b10156109c257600080fd5b8073ffffffffffffffffffffffffffffffffffffffff166323b872dd33306006546040518463ffffffff1660e01b8152600401610a019392919061337c565b6020604051808303816000875af1158015610a20573d6000803e3d6000fd5b505050506040513d601f19601f82011682018060405250810190610a4491906133c8565b50600754600654610a559190613424565b600e60008481526020019081526020016000206000828254610a779190613458565b925050819055506000610a8a600b611981565b905060405180606001604052804281526020018481526020013373ffffffffffffffffffffffffffffffffffffffff1681525060106000838152602001908152602001600020600082015181600001556020820151816001015560408201518160020160006101000a81548173ffffffffffffffffffffffffffffffffffffffff021916908373ffffffffffffffffffffffffffffffffffffffff160217905550905050610b7c600d600085815260200190815260200160002060009054906101000a900473ffffffffffffffffffffffffffffffffffffffff1633856040518060200160405280600081525061198f565b6009819080600181540180825580915050600190039060005260206000200160009091909190915055806011600085815260200190815260200160002081905550610bc7600b6114b4565b505050565b606060018054610bdb90612f0b565b80601f0160208091040260200160405190810160405280929190818152602001828054610c0790612f0b565b8015610c545780601f10610c2957610100808354040283529160200191610c54565b820191906000526020600020905b815481529060010190602001808311610c3757829003601f168201915b5050505050905090565b610c70610c696115a0565b83836119eb565b5050565b60065481565b610c8b610c856115a0565b83611661565b610cca576040517f08c379a0000000000000000000000000000000000000000000000000000000008152600401610cc190613164565b60405180910390fd5b610cd68484848461198f565b50505050565b610ce4611b57565b6000610cf0600a611981565b9050610cfc600a6114b4565b610d0d610d076115a0565b82611b68565b610d178184611b86565b610d1f6115a0565b600d600083815260200190815260200160002060006101000a81548173ffffffffffffffffffffffffffffffffffffffff021916908373ffffffffffffffffffffffffffffffffffffffff16021790555081600f600083815260200190815260200160002060006101000a81548173ffffffffffffffffffffffffffffffffffffffff021916908373ffffffffffffffffffffffffffffffffffffffff160217905550505050565b6060610dd282611534565b610e11576040517f08c379a0000000000000000000000000000000000000000000000000000000008152600401610e0890613520565b60405180910390fd5b6000600c60008481526020019081526020016000208054610e3190612f0b565b80601f0160208091040260200160405190810160405280929190818152602001828054610e5d90612f0b565b8015610eaa5780601f10610e7f57610100808354040283529160200191610eaa565b820191906000526020600020905b815481529060010190602001808311610e8d57829003601f168201915b5050505050905080915050919050565b42600881905550610eca81611534565b610f09576040517f08c379a0000000000000000000000000000000000000000000000000000000008152600401610f009061331a565b60405180910390fd5b600d600082815260200190815260200160002060009054906101000a900473ffffffffffffffffffffffffffffffffffffffff1673ffffffffffffffffffffffffffffffffffffffff163373ffffffffffffffffffffffffffffffffffffffff1614610faa576040517f08c379a0000000000000000000000000000000000000000000000000000000008152600401610fa1906135b2565b60405180910390fd5b6000603c600e600084815260200190815260200160002054610fcc9190613601565b905060006010600060116000868152602001908152602001600020548152602001908152602001600020600001546008546110079190613424565b9050600081836110179190613632565b90506000600f600086815260200190815260200160002060009054906101000a900473ffffffffffffffffffffffffffffffffffffffff169050818173ffffffffffffffffffffffffffffffffffffffff166370a08231306040518263ffffffff1660e01b815260040161108b919061289f565b602060405180830381865afa1580156110a8573d6000803e3d6000fd5b505050506040513d601f19601f820116820180604052508101906110cc919061334f565b10156110d757600080fd5b8073ffffffffffffffffffffffffffffffffffffffff1663a9059cbb600d600088815260200190815260200160002060009054906101000a900473ffffffffffffffffffffffffffffffffffffffff16846040518363ffffffff1660e01b815260040161114592919061368c565b6020604051808303816000875af1158015611164573d6000803e3d6000fd5b505050506040513d601f19601f8201168201806040525081019061118891906133c8565b5081600e600087815260200190815260200160002060008282546111ac9190613424565b925050819055505050505050565b60608060006111c9600a611981565b90506000811115611418578067ffffffffffffffff8111156111ee576111ed612a1c565b5b60405190808252806020026020018201604052801561122757816020015b611214612542565b81526020019060019003908161120c5790505b5091506000600190505b81811015611416576040518060c00160405280828152602001600c6000848152602001908152602001600020805461126890612f0b565b80601f016020809104026020016040519081016040528092919081815260200182805461129490612f0b565b80156112e15780601f106112b6576101008083540402835291602001916112e1565b820191906000526020600020905b8154815290600101906020018083116112c457829003601f168201915b50505050508152602001600d600084815260200190815260200160002060009054906101000a900473ffffffffffffffffffffffffffffffffffffffff1673ffffffffffffffffffffffffffffffffffffffff1681526020016010600060116000868152602001908152602001600020548152602001908152602001600020600001548152602001601060006011600086815260200190815260200160002054815260200190815260200160002060020160009054906101000a900473ffffffffffffffffffffffffffffffffffffffff1673ffffffffffffffffffffffffffffffffffffffff168152602001600e6000848152602001908152602001600020548152508382815181106113f8576113f76136b5565b5b6020026020010181905250808061140e906136e4565b915050611231565b505b819250505090565b6000600560008473ffffffffffffffffffffffffffffffffffffffff1673ffffffffffffffffffffffffffffffffffffffff16815260200190815260200160002060008373ffffffffffffffffffffffffffffffffffffffff1673ffffffffffffffffffffffffffffffffffffffff16815260200190815260200160002060009054906101000a900460ff16905092915050565b6001816000016000828254019250508190555050565b60007f01ffc9a7000000000000000000000000000000000000000000000000000000007bffffffffffffffffffffffffffffffffffffffffffffffffffffffff1916827bffffffffffffffffffffffffffffffffffffffffffffffffffffffff1916149050919050565b60008073ffffffffffffffffffffffffffffffffffffffff166002600084815260200190815260200160002060009054906101000a900473ffffffffffffffffffffffffffffffffffffffff1673ffffffffffffffffffffffffffffffffffffffff1614159050919050565b600033905090565b816004600083815260200190815260200160002060006101000a81548173ffffffffffffffffffffffffffffffffffffffff021916908373ffffffffffffffffffffffffffffffffffffffff160217905550808273ffffffffffffffffffffffffffffffffffffffff1661161b83610752565b73ffffffffffffffffffffffffffffffffffffffff167f8c5be1e5ebec7d5bd14f71427d1e84f3dd0314c0f7b2291e5b200ac8c7c3b92560405160405180910390a45050565b600061166c82611534565b6116ab576040517f08c379a00000000000000000000000000000000000000000000000000000000081526004016116a29061379e565b60405180910390fd5b6000600d600084815260200190815260200160002060009054906101000a900473ffffffffffffffffffffffffffffffffffffffff1690508073ffffffffffffffffffffffffffffffffffffffff168473ffffffffffffffffffffffffffffffffffffffff161491505092915050565b8273ffffffffffffffffffffffffffffffffffffffff1661173b82610752565b73ffffffffffffffffffffffffffffffffffffffff1614611791576040517f08c379a000000000000000000000000000000000000000000000000000000000815260040161178890613830565b60405180910390fd5b600073ffffffffffffffffffffffffffffffffffffffff168273ffffffffffffffffffffffffffffffffffffffff1603611800576040517f08c379a00000000000000000000000000000000000000000000000000000000081526004016117f7906138c2565b60405180910390fd5b61180b838383611bfa565b6118166000826115a8565b6001600360008573ffffffffffffffffffffffffffffffffffffffff1673ffffffffffffffffffffffffffffffffffffffff16815260200190815260200160002060008282546118669190613424565b925050819055506001600360008473ffffffffffffffffffffffffffffffffffffffff1673ffffffffffffffffffffffffffffffffffffffff16815260200190815260200160002060008282546118bd9190613458565b92505081905550816002600083815260200190815260200160002060006101000a81548173ffffffffffffffffffffffffffffffffffffffff021916908373ffffffffffffffffffffffffffffffffffffffff160217905550808273ffffffffffffffffffffffffffffffffffffffff168473ffffffffffffffffffffffffffffffffffffffff167fddf252ad1be2c89b69c2b068fc378daa952ba7f163c4a11628f55a4df523b3ef60405160405180910390a461197c838383611bff565b505050565b600081600001549050919050565b61199a84848461171b565b6119a684848484611c04565b6119e5576040517f08c379a00000000000000000000000000000000000000000000000000000000081526004016119dc90613954565b60405180910390fd5b50505050565b8173ffffffffffffffffffffffffffffffffffffffff168373ffffffffffffffffffffffffffffffffffffffff1603611a59576040517f08c379a0000000000000000000000000000000000000000000000000000000008152600401611a50906139c0565b60405180910390fd5b80600560008573ffffffffffffffffffffffffffffffffffffffff1673ffffffffffffffffffffffffffffffffffffffff16815260200190815260200160002060008473ffffffffffffffffffffffffffffffffffffffff1673ffffffffffffffffffffffffffffffffffffffff16815260200190815260200160002060006101000a81548160ff0219169083151502179055508173ffffffffffffffffffffffffffffffffffffffff168373ffffffffffffffffffffffffffffffffffffffff167f17307eab39ab6107e8899845ad3d59bd9653f200f220920489ca2b5937696c3183604051611b4a91906126fb565b60405180910390a3505050565b42600881905550611b66611d8b565b565b611b828282604051806020016040528060008152506120c5565b5050565b611b8f82611534565b611bce576040517f08c379a0000000000000000000000000000000000000000000000000000000008152600401611bc590613a52565b60405180910390fd5b80600c60008481526020019081526020016000209080519060200190611bf59291906125a4565b505050565b505050565b505050565b6000611c258473ffffffffffffffffffffffffffffffffffffffff16612120565b15611d7e578373ffffffffffffffffffffffffffffffffffffffff1663150b7a02611c4e6115a0565b8786866040518563ffffffff1660e01b8152600401611c709493929190613ac7565b6020604051808303816000875af1925050508015611cac57506040513d601f19601f82011682018060405250810190611ca99190613b28565b60015b611d2e573d8060008114611cdc576040519150601f19603f3d011682016040523d82523d6000602084013e611ce1565b606091505b506000815103611d26576040517f08c379a0000000000000000000000000000000000000000000000000000000008152600401611d1d90613954565b60405180910390fd5b805181602001fd5b63150b7a0260e01b7bffffffffffffffffffffffffffffffffffffffffffffffffffffffff1916817bffffffffffffffffffffffffffffffffffffffffffffffffffffffff191614915050611d83565b600190505b949350505050565b600060098054905067ffffffffffffffff811115611dac57611dab612a1c565b5b604051908082528060200260200182016040528015611dda5781602001602082028036833780820191505090505b50905060005b600980549050811015611f095760006010600060098481548110611e0757611e066136b5565b5b9060005260206000200154815260200190815260200160002060405180606001604052908160008201548152602001600182015481526020016002820160009054906101000a900473ffffffffffffffffffffffffffffffffffffffff1673ffffffffffffffffffffffffffffffffffffffff1673ffffffffffffffffffffffffffffffffffffffff16815250509050603c8160000151600854611eab9190613424565b1015611eb75750611f09565b60098281548110611ecb57611eca6136b5565b5b9060005260206000200154838381518110611ee957611ee86136b5565b5b602002602001018181525050508080611f01906136e4565b915050611de0565b5060005b81518110156120c1576000828281518110611f2b57611f2a6136b5565b5b602002602001015111156120ae57600060106000848481518110611f5257611f516136b5565b5b6020026020010151815260200190815260200160002060405180606001604052908160008201548152602001600182015481526020016002820160009054906101000a900473ffffffffffffffffffffffffffffffffffffffff1673ffffffffffffffffffffffffffffffffffffffff1673ffffffffffffffffffffffffffffffffffffffff16815250509050611ff181602001518260400151612143565b60106000848481518110612008576120076136b5565b5b6020026020010151815260200190815260200160002060008082016000905560018201600090556002820160006101000a81549073ffffffffffffffffffffffffffffffffffffffff02191690555050600960008154811061206d5761206c6136b5565b5b906000526020600020016000905560116000848481518110612092576120916136b5565b5b6020026020010151815260200190815260200160002060009055505b80806120b9906136e4565b915050611f0d565b5050565b6120cf8383612369565b6120dc6000848484611c04565b61211b576040517f08c379a000000000000000000000000000000000000000000000000000000000815260040161211290613954565b60405180910390fd5b505050565b6000808273ffffffffffffffffffffffffffffffffffffffff163b119050919050565b6000600f600084815260200190815260200160002060009054906101000a900473ffffffffffffffffffffffffffffffffffffffff169050600e6000848152602001908152602001600020548173ffffffffffffffffffffffffffffffffffffffff166370a08231306040518263ffffffff1660e01b81526004016121c8919061289f565b602060405180830381865afa1580156121e5573d6000803e3d6000fd5b505050506040513d601f19601f82011682018060405250810190612209919061334f565b101561221457600080fd5b8073ffffffffffffffffffffffffffffffffffffffff1663a9059cbb600d600086815260200190815260200160002060009054906101000a900473ffffffffffffffffffffffffffffffffffffffff16600e6000878152602001908152602001600020546040518363ffffffff1660e01b815260040161229592919061368c565b6020604051808303816000875af11580156122b4573d6000803e3d6000fd5b505050506040513d601f19601f820116820180604052508101906122d891906133c8565b50600e600084815260200190815260200160002054600e6000858152602001908152602001600020600082825461230f9190613424565b9250508190555061236482600d600086815260200190815260200160002060009054906101000a900473ffffffffffffffffffffffffffffffffffffffff16856040518060200160405280600081525061198f565b505050565b600073ffffffffffffffffffffffffffffffffffffffff168273ffffffffffffffffffffffffffffffffffffffff16036123d8576040517f08c379a00000000000000000000000000000000000000000000000000000000081526004016123cf90613ba1565b60405180910390fd5b6123e181611534565b15612421576040517f08c379a000000000000000000000000000000000000000000000000000000000815260040161241890613c0d565b60405180910390fd5b61242d60008383611bfa565b6001600360008473ffffffffffffffffffffffffffffffffffffffff1673ffffffffffffffffffffffffffffffffffffffff168152602001908152602001600020600082825461247d9190613458565b92505081905550816002600083815260200190815260200160002060006101000a81548173ffffffffffffffffffffffffffffffffffffffff021916908373ffffffffffffffffffffffffffffffffffffffff160217905550808273ffffffffffffffffffffffffffffffffffffffff16600073ffffffffffffffffffffffffffffffffffffffff167fddf252ad1be2c89b69c2b068fc378daa952ba7f163c4a11628f55a4df523b3ef60405160405180910390a461253e60008383611bff565b5050565b6040518060c001604052806000815260200160608152602001600073ffffffffffffffffffffffffffffffffffffffff16815260200160008152602001600073ffffffffffffffffffffffffffffffffffffffff168152602001600081525090565b8280546125b090612f0b565b90600052602060002090601f0160209004810192826125d25760008555612619565b82601f106125eb57805160ff1916838001178555612619565b82800160010185558215612619579182015b828111156126185782518255916020019190600101906125fd565b5b509050612626919061262a565b5090565b5b8082111561264357600081600090555060010161262b565b5090565b6000604051905090565b600080fd5b600080fd5b60007fffffffff0000000000000000000000000000000000000000000000000000000082169050919050565b6126908161265b565b811461269b57600080fd5b50565b6000813590506126ad81612687565b92915050565b6000602082840312156126c9576126c8612651565b5b60006126d78482850161269e565b91505092915050565b60008115159050919050565b6126f5816126e0565b82525050565b600060208201905061271060008301846126ec565b92915050565b6000819050919050565b61272981612716565b82525050565b60006020820190506127446000830184612720565b92915050565b600081519050919050565b600082825260208201905092915050565b60005b83811015612784578082015181840152602081019050612769565b83811115612793576000848401525b50505050565b6000601f19601f8301169050919050565b60006127b58261274a565b6127bf8185612755565b93506127cf818560208601612766565b6127d881612799565b840191505092915050565b600060208201905081810360008301526127fd81846127aa565b905092915050565b61280e81612716565b811461281957600080fd5b50565b60008135905061282b81612805565b92915050565b60006020828403121561284757612846612651565b5b60006128558482850161281c565b91505092915050565b600073ffffffffffffffffffffffffffffffffffffffff82169050919050565b60006128898261285e565b9050919050565b6128998161287e565b82525050565b60006020820190506128b46000830184612890565b92915050565b6128c38161287e565b81146128ce57600080fd5b50565b6000813590506128e0816128ba565b92915050565b600080604083850312156128fd576128fc612651565b5b600061290b858286016128d1565b925050602061291c8582860161281c565b9150509250929050565b60008060006060848603121561293f5761293e612651565b5b600061294d868287016128d1565b935050602061295e868287016128d1565b925050604061296f8682870161281c565b9150509250925092565b60006020828403121561298f5761298e612651565b5b600061299d848285016128d1565b91505092915050565b6129af816126e0565b81146129ba57600080fd5b50565b6000813590506129cc816129a6565b92915050565b600080604083850312156129e9576129e8612651565b5b60006129f7858286016128d1565b9250506020612a08858286016129bd565b9150509250929050565b600080fd5b600080fd5b7f4e487b7100000000000000000000000000000000000000000000000000000000600052604160045260246000fd5b612a5482612799565b810181811067ffffffffffffffff82111715612a7357612a72612a1c565b5b80604052505050565b6000612a86612647565b9050612a928282612a4b565b919050565b600067ffffffffffffffff821115612ab257612ab1612a1c565b5b612abb82612799565b9050602081019050919050565b82818337600083830152505050565b6000612aea612ae584612a97565b612a7c565b905082815260208101848484011115612b0657612b05612a17565b5b612b11848285612ac8565b509392505050565b600082601f830112612b2e57612b2d612a12565b5b8135612b3e848260208601612ad7565b91505092915050565b60008060008060808587031215612b6157612b60612651565b5b6000612b6f878288016128d1565b9450506020612b80878288016128d1565b9350506040612b918782880161281c565b925050606085013567ffffffffffffffff811115612bb257612bb1612656565b5b612bbe87828801612b19565b91505092959194509250565b600067ffffffffffffffff821115612be557612be4612a1c565b5b612bee82612799565b9050602081019050919050565b6000612c0e612c0984612bca565b612a7c565b905082815260208101848484011115612c2a57612c29612a17565b5b612c35848285612ac8565b509392505050565b600082601f830112612c5257612c51612a12565b5b8135612c62848260208601612bfb565b91505092915050565b60008060408385031215612c8257612c81612651565b5b600083013567ffffffffffffffff811115612ca057612c9f612656565b5b612cac85828601612c3d565b9250506020612cbd858286016128d1565b9150509250929050565b600081519050919050565b600082825260208201905092915050565b6000819050602082019050919050565b612cfc81612716565b82525050565b600082825260208201905092915050565b6000612d1e8261274a565b612d288185612d02565b9350612d38818560208601612766565b612d4181612799565b840191505092915050565b612d558161287e565b82525050565b600060c083016000830151612d736000860182612cf3565b5060208301518482036020860152612d8b8282612d13565b9150506040830151612da06040860182612d4c565b506060830151612db36060860182612cf3565b506080830151612dc66080860182612d4c565b5060a0830151612dd960a0860182612cf3565b508091505092915050565b6000612df08383612d5b565b905092915050565b6000602082019050919050565b6000612e1082612cc7565b612e1a8185612cd2565b935083602082028501612e2c85612ce3565b8060005b85811015612e685784840389528151612e498582612de4565b9450612e5483612df8565b925060208a01995050600181019050612e30565b50829750879550505050505092915050565b60006020820190508181036000830152612e948184612e05565b905092915050565b60008060408385031215612eb357612eb2612651565b5b6000612ec1858286016128d1565b9250506020612ed2858286016128d1565b9150509250929050565b7f4e487b7100000000000000000000000000000000000000000000000000000000600052602260045260246000fd5b60006002820490506001821680612f2357607f821691505b602082108103612f3657612f35612edc565b5b50919050565b7f4552433732313a20617070726f76656420717565727920666f72206e6f6e657860008201527f697374656e7420746f6b656e0000000000000000000000000000000000000000602082015250565b6000612f98602c83612755565b9150612fa382612f3c565b604082019050919050565b60006020820190508181036000830152612fc781612f8b565b9050919050565b7f4552433732313a20617070726f76616c20746f2063757272656e74206f776e6560008201527f7200000000000000000000000000000000000000000000000000000000000000602082015250565b600061302a602183612755565b915061303582612fce565b604082019050919050565b600060208201905081810360008301526130598161301d565b9050919050565b7f4552433732313a20617070726f76652063616c6c6572206973206e6f74206f7760008201527f6e6572206e6f7220617070726f76656420666f7220616c6c0000000000000000602082015250565b60006130bc603883612755565b91506130c782613060565b604082019050919050565b600060208201905081810360008301526130eb816130af565b9050919050565b7f4552433732313a207472616e736665722063616c6c6572206973206e6f74206f60008201527f776e6572206e6f7220617070726f766564000000000000000000000000000000602082015250565b600061314e603183612755565b9150613159826130f2565b604082019050919050565b6000602082019050818103600083015261317d81613141565b9050919050565b7f4552433732313a206f776e657220717565727920666f72206e6f6e657869737460008201527f656e7420746f6b656e0000000000000000000000000000000000000000000000602082015250565b60006131e0602983612755565b91506131eb82613184565b604082019050919050565b6000602082019050818103600083015261320f816131d3565b9050919050565b7f4552433732313a2062616c616e636520717565727920666f7220746865207a6560008201527f726f206164647265737300000000000000000000000000000000000000000000602082015250565b6000613272602a83612755565b915061327d82613216565b604082019050919050565b600060208201905081810360008301526132a181613265565b9050919050565b7f4552433732313a2072656e7420717565727920666f72206e6f6e65786973746560008201527f6e7420746f6b656e000000000000000000000000000000000000000000000000602082015250565b6000613304602883612755565b915061330f826132a8565b604082019050919050565b60006020820190508181036000830152613333816132f7565b9050919050565b60008151905061334981612805565b92915050565b60006020828403121561336557613364612651565b5b60006133738482850161333a565b91505092915050565b60006060820190506133916000830186612890565b61339e6020830185612890565b6133ab6040830184612720565b949350505050565b6000815190506133c2816129a6565b92915050565b6000602082840312156133de576133dd612651565b5b60006133ec848285016133b3565b91505092915050565b7f4e487b7100000000000000000000000000000000000000000000000000000000600052601160045260246000fd5b600061342f82612716565b915061343a83612716565b92508282101561344d5761344c6133f5565b5b828203905092915050565b600061346382612716565b915061346e83612716565b9250827fffffffffffffffffffffffffffffffffffffffffffffffffffffffffffffffff038211156134a3576134a26133f5565b5b828201905092915050565b7f4552433732314d657461646174613a2055524920717565727920666f72206e6f60008201527f6e6578697374656e7420746f6b656e0000000000000000000000000000000000602082015250565b600061350a602f83612755565b9150613515826134ae565b604082019050919050565b60006020820190508181036000830152613539816134fd565b9050919050565b7f52656465656d3a2063616c6c6572206973206e6f74207468652063726561746f60008201527f7200000000000000000000000000000000000000000000000000000000000000602082015250565b600061359c602183612755565b91506135a782613540565b604082019050919050565b600060208201905081810360008301526135cb8161358f565b9050919050565b7f4e487b7100000000000000000000000000000000000000000000000000000000600052601260045260246000fd5b600061360c82612716565b915061361783612716565b925082613627576136266135d2565b5b828204905092915050565b600061363d82612716565b915061364883612716565b9250817fffffffffffffffffffffffffffffffffffffffffffffffffffffffffffffffff0483118215151615613681576136806133f5565b5b828202905092915050565b60006040820190506136a16000830185612890565b6136ae6020830184612720565b9392505050565b7f4e487b7100000000000000000000000000000000000000000000000000000000600052603260045260246000fd5b60006136ef82612716565b91507fffffffffffffffffffffffffffffffffffffffffffffffffffffffffffffffff8203613721576137206133f5565b5b600182019050919050565b7f4552433732313a206f70657261746f7220717565727920666f72206e6f6e657860008201527f697374656e7420746f6b656e0000000000000000000000000000000000000000602082015250565b6000613788602c83612755565b91506137938261372c565b604082019050919050565b600060208201905081810360008301526137b78161377b565b9050919050565b7f4552433732313a207472616e736665722066726f6d20696e636f72726563742060008201527f6f776e6572000000000000000000000000000000000000000000000000000000602082015250565b600061381a602583612755565b9150613825826137be565b604082019050919050565b600060208201905081810360008301526138498161380d565b9050919050565b7f4552433732313a207472616e7366657220746f20746865207a65726f2061646460008201527f7265737300000000000000000000000000000000000000000000000000000000602082015250565b60006138ac602483612755565b91506138b782613850565b604082019050919050565b600060208201905081810360008301526138db8161389f565b9050919050565b7f4552433732313a207472616e7366657220746f206e6f6e20455243373231526560008201527f63656976657220696d706c656d656e7465720000000000000000000000000000602082015250565b600061393e603283612755565b9150613949826138e2565b604082019050919050565b6000602082019050818103600083015261396d81613931565b9050919050565b7f4552433732313a20617070726f766520746f2063616c6c657200000000000000600082015250565b60006139aa601983612755565b91506139b582613974565b602082019050919050565b600060208201905081810360008301526139d98161399d565b9050919050565b7f4552433732314d657461646174613a205552492073657420666f72206e6f6e6560008201527f78697374656e7420746f6b656e00000000000000000000000000000000000000602082015250565b6000613a3c602d83612755565b9150613a47826139e0565b604082019050919050565b60006020820190508181036000830152613a6b81613a2f565b9050919050565b600081519050919050565b600082825260208201905092915050565b6000613a9982613a72565b613aa38185613a7d565b9350613ab3818560208601612766565b613abc81612799565b840191505092915050565b6000608082019050613adc6000830187612890565b613ae96020830186612890565b613af66040830185612720565b8181036060830152613b088184613a8e565b905095945050505050565b600081519050613b2281612687565b92915050565b600060208284031215613b3e57613b3d612651565b5b6000613b4c84828501613b13565b91505092915050565b7f4552433732313a206d696e7420746f20746865207a65726f2061646472657373600082015250565b6000613b8b602083612755565b9150613b9682613b55565b602082019050919050565b60006020820190508181036000830152613bba81613b7e565b9050919050565b7f4552433732313a20746f6b656e20616c7265616479206d696e74656400000000600082015250565b6000613bf7601c83612755565b9150613c0282613bc1565b602082019050919050565b60006020820190508181036000830152613c2681613bea565b905091905056fea2646970667358221220e9fa784cf89babf88027e9a108a21788a69f426ac838766306430b5fc12d0e2364736f6c634300080e0033",
  "immutableReferences": {},
  "source": "// SPDX-License-Identifier: MIT\npragma solidity ^0.8.0;\n\nimport \"@openzeppelin/contracts/token/ERC721/ERC721.sol\";\nimport \"@openzeppelin/contracts/utils/Counters.sol\";\nimport \"@openzeppelin/contracts/token/ERC20/ERC20.sol\";\n\ncontract Birden is ERC721 {\n    struct RentalStruct{\n        uint256 rentedAt;\n        uint256 tokenId;\n        address rentedBy;\n    }\n\n    struct TokenInfoStruct{\n        uint256 tokenId;\n        string URI;\n        address creator;\n        uint256 rentedAt;\n        address rentedBy;\n        uint256 balance;\n    }\n\n    using Counters for Counters.Counter;\n\n    uint256 public rentPriceCelo = 1 ether;\n    uint256 public _comission = 0.01 ether;\n\n    uint256 private _lastRun;\n    uint256[] private rentedSeq;\n\n    Counters.Counter private _tokenIdCounter;\n    Counters.Counter private _seqCounter;\n\n    mapping (uint256 => string) private _tokenURIs;\n    mapping (uint256 => address) private _tokenCreators;\n    mapping (uint256 => uint256) private _balances;\n    mapping (uint256 => address) private _tokenCurrencies;\n    mapping (uint256 => RentalStruct) private _rentedAt;\n    mapping (uint256 => uint256) private _tokenToSeq;\n\n    constructor() ERC721(\"Birden\", \"BRDN\") {\n        _lastRun = block.timestamp;\n        _tokenIdCounter.increment();\n        _seqCounter.increment();\n    }\n\n    function _isApprovedOrOwner(address spender, uint256 tokenId) internal view virtual override returns (bool) {\n        require(_exists(tokenId), \"ERC721: operator query for nonexistent token\");\n        address creator = _tokenCreators[tokenId];\n        return (spender == creator);\n    }\n\n    function _setTokenURI(uint256 tokenId, string memory _tokenURI) internal virtual {\n        require(_exists(tokenId), \"ERC721Metadata: URI set for nonexistent token\");\n        _tokenURIs[tokenId] = _tokenURI;\n    }\n        \n    function tokenURI(uint256 tokenId) public view virtual override returns (string memory) {\n        require(_exists(tokenId), \"ERC721Metadata: URI query for nonexistent token\");\n        string memory _tokenURI = _tokenURIs[tokenId];\n        return _tokenURI;\n    }\n\n    function tokensInfo() public view returns(TokenInfoStruct[] memory) {\n        TokenInfoStruct[] memory _toReturn;\n        uint256 lastTokenId = _tokenIdCounter.current();\n        if (lastTokenId > 0) {\n            _toReturn = new TokenInfoStruct[](lastTokenId);\n            for (uint i = 1; i < lastTokenId; i++) {\n                _toReturn[i] = TokenInfoStruct(\n                  i,\n                  _tokenURIs[i],\n                  _tokenCreators[i],\n                  _rentedAt[_tokenToSeq[i]].rentedAt,\n                  _rentedAt[_tokenToSeq[i]].rentedBy,\n                  _balances[i]\n                );\n            }\n        }\n        return _toReturn;\n    }\n\n    function rent(uint256 tokenId) public {\n        require(_exists(tokenId), \"ERC721: rent query for nonexistent token\");\n\n        ERC20 token = ERC20(_tokenCurrencies[tokenId]);\n        require(token.balanceOf(msg.sender) >= rentPriceCelo);\n        token.transferFrom(msg.sender, address(this), rentPriceCelo);\n\n        _balances[tokenId] += rentPriceCelo - _comission;\n        uint256 currentSeq = _seqCounter.current();\n        _rentedAt[currentSeq] = RentalStruct(block.timestamp, tokenId, msg.sender);\n        _safeTransfer(_tokenCreators[tokenId], msg.sender, tokenId, \"\");\n        rentedSeq.push(currentSeq);\n        _tokenToSeq[tokenId] = currentSeq;\n        _seqCounter.increment();\n    }\n\n    function _tick() internal virtual {\n        _lastRun = block.timestamp;\n        _checkReturns();\n    }\n\n    function _checkReturns() internal virtual {\n        uint256[] memory _toReturn = new uint256[](rentedSeq.length);\n        for (uint i = 0; i < rentedSeq.length ; i++) {\n            RentalStruct memory _rentInfo = _rentedAt[rentedSeq[i]];\n            if (_lastRun - _rentInfo.rentedAt < 1 minutes) {\n                break;\n            } else {\n                _toReturn[i] = rentedSeq[i];\n            }\n        }\n        for (uint i = 0; i < _toReturn.length; i++) {\n            if (_toReturn[i] > 0) {\n                RentalStruct memory _rentInfo = _rentedAt[_toReturn[i]];\n                _returnRented(_rentInfo.tokenId, _rentInfo.rentedBy);\n                delete _rentedAt[_toReturn[i]];\n                delete rentedSeq[0];\n                delete _tokenToSeq[_toReturn[i]];\n            }\n        }\n    }\n\n    function _returnRented(uint256 tokenId, address rentedBy) internal virtual {\n        ERC20 token = ERC20(_tokenCurrencies[tokenId]);\n        require(token.balanceOf(address(this)) >= _balances[tokenId]);\n        token.transfer(_tokenCreators[tokenId], _balances[tokenId]);\n\n        _balances[tokenId] -= _balances[tokenId];\n\n        _safeTransfer(rentedBy, _tokenCreators[tokenId], tokenId, \"\");\n    }\n\n    function redeem(uint256 tokenId) public {\n        _lastRun = block.timestamp;\n\n        require(_exists(tokenId), \"ERC721: rent query for nonexistent token\");\n        require(msg.sender == _tokenCreators[tokenId], \"Redeem: caller is not the creator\");\n\n        uint256 _toRedeemPart = _balances[tokenId] / 1 minutes;\n        uint256 _toRedeemSeconds = _lastRun - _rentedAt[_tokenToSeq[tokenId]].rentedAt;\n        uint256 _toRedeem = _toRedeemPart * _toRedeemSeconds;\n\n        ERC20 token = ERC20(_tokenCurrencies[tokenId]);\n        require(token.balanceOf(address(this)) >= _toRedeem);\n\n        token.transfer(_tokenCreators[tokenId], _toRedeem);\n        _balances[tokenId] -= _toRedeem;\n    }\n\n    function safeMint(string memory _tokenURI, address rent_token_address) external {\n        _tick();\n        uint256 tokenId = _tokenIdCounter.current();\n        _tokenIdCounter.increment();\n        _safeMint(_msgSender(), tokenId);\n        _setTokenURI(tokenId, _tokenURI);\n        _tokenCreators[tokenId] = _msgSender();\n        _tokenCurrencies[tokenId] = rent_token_address;\n    }\n}\n",
  "sourcePath": "/Users/vf/birden/contracts/Birden.sol",
  "compiler": {
    "name": "solc",
    "version": "0.8.14+commit.80d49f37.Emscripten.clang"
  },
  "schemaVersion": "3.4.1",
  "updatedAt": "2022-05-20T14:35:56.642Z",
  "networkType": "ethereum",
  "devdoc": {
    "kind": "dev",
    "methods": {
      "approve(address,uint256)": {
        "details": "See {IERC721-approve}."
      },
      "balanceOf(address)": {
        "details": "See {IERC721-balanceOf}."
      },
      "getApproved(uint256)": {
        "details": "See {IERC721-getApproved}."
      },
      "isApprovedForAll(address,address)": {
        "details": "See {IERC721-isApprovedForAll}."
      },
      "name()": {
        "details": "See {IERC721Metadata-name}."
      },
      "ownerOf(uint256)": {
        "details": "See {IERC721-ownerOf}."
      },
      "safeTransferFrom(address,address,uint256)": {
        "details": "See {IERC721-safeTransferFrom}."
      },
      "safeTransferFrom(address,address,uint256,bytes)": {
        "details": "See {IERC721-safeTransferFrom}."
      },
      "setApprovalForAll(address,bool)": {
        "details": "See {IERC721-setApprovalForAll}."
      },
      "supportsInterface(bytes4)": {
        "details": "See {IERC165-supportsInterface}."
      },
      "symbol()": {
        "details": "See {IERC721Metadata-symbol}."
      },
      "tokenURI(uint256)": {
        "details": "See {IERC721Metadata-tokenURI}."
      },
      "transferFrom(address,address,uint256)": {
        "details": "See {IERC721-transferFrom}."
      }
    },
    "version": 1
  },
  "userdoc": {
    "kind": "user",
    "methods": {},
    "version": 1
  }
}